:020000040800F2
:1000000000500020C98200082983000829830008C5
:1000100029830008298300082983000800000000C4
:10002000000000000000000000000000298300081C
:10003000298300080000000029830008A35C000851
:1000400029830008298300082983000829830008E0
:100050002983000829830008955D00089B5D00083E
:10006000A15D0008A75D0008AD5D000829830008B8
:1000700029830008298300082983000829830008B0
:100080002983000829830008298300084D8000087F
:10009000418000082983000829830008B35D000817
:1000A00029830008154D000829830008294D000800
:1000B0002D4D0008414D0008554D000829830008CA
:1000C0002983000829830008298300082983000860
:1000D00029830008296A0008416A00085D6A00084F
:1000E000C95D000829830008518000080000000055
:1000F0000000000000000000000000000000000000
:0C01000000000000000000005FF808F1A3
:10011000034613F8012B002AFBD1181A0138704747
:1001200081F0004102E000BF83F0004330B54FEAA8
:1001300041044FEA430594EA050F08BF90EA020F15
:100140001FBF54EA000C55EA020C7FEA645C7FEAA8
:10015000655C00F0E2804FEA5454D4EB5555B8BFCB
:100160006D420CDD2C4480EA020281EA030382EA3C
:10017000000083EA010180EA020281EA0303362DCE
:1001800088BF30BD11F0004F4FEA01314FF4801CA1
:100190004CEA113102D0404261EB410113F0004FB3
:1001A0004FEA03334CEA133302D0524263EB43036A
:1001B00094EA050F00F0A780A4F10104D5F1200E08
:1001C0000DDB02FA0EFC22FA05F2801841F1000163
:1001D00003FA0EF2801843FA05F359410EE0A5F137
:1001E00020050EF1200E012A03FA0EFC28BF4CF068
:1001F000020C43FA05F3C01851EBE37101F000451E
:1002000007D54FF0000EDCF1000C7EEB00006EEB2A
:100210000101B1F5801F1BD3B1F5001F0CD34908B4
:100220005FEA30004FEA3C0C04F101044FEA44520B
:1002300012F5800F80F09A80BCF1004F08BF5FEA92
:10024000500C50F1000041EB045141EA050130BD72
:100250005FEA4C0C404141EB0101013C28BFB1F584
:10026000801FE9D291F0000F04BF01460020B1FACF
:1002700081F308BF2033A3F10B03B3F120020CDAA2
:100280000C3208DD02F1140CC2F10C0201FA0CF080
:1002900021FA02F10CE002F11402D8BFC2F1200CE5
:1002A00001FA02F120FA0CFCDCBF41EA0C0190409B
:1002B000E41AA2BF01EB0451294330BD6FEA0404E4
:1002C0001F3C1CDA0C340EDC04F11404C4F12002CF
:1002D00020FA04F001FA02F340EA030021FA04F3E1
:1002E00045EA030130BDC4F10C04C4F1200220FA38
:1002F00002F001FA04F340EA0300294630BD21FA76
:1003000004F0294630BD94F0000F83F4801306BF3B
:1003100081F480110134013D4EE77FEA645C18BF2F
:100320007FEA655C29D094EA050F08BF90EA020FC6
:1003300005D054EA000C04BF1946104630BD91EABE
:10034000030F1EBF0021002030BD5FEA545C05D1C1
:100350004000494128BF41F0004130BD14F5800400
:100360003CBF01F5801130BD01F0004545F0FE4174
:1003700041F470014FF0000030BD7FEA645C1ABFA9
:10038000194610467FEA655C1CBF0B46024650EAE0
:10039000013406BF52EA033591EA030F41F400210C
:1003A00030BD00BF90F0000F04BF0021704730B592
:1003B0004FF4806404F132044FF000054FF0000167
:1003C00050E700BF90F0000F04BF0021704730B528
:1003D0004FF4806404F1320410F0004548BF4042FD
:1003E0004FF000013EE700BF42004FEAE2014FEA52
:1003F00031014FEA02701FBF12F07F4393F07F4F2D
:1004000081F06051704732F07F4208BF704793F02F
:100410007F4F04BF41F40021704730B54FF4607442
:1004200001F0004521F000411CE700BF50EA010245
:1004300008BF704730B54FF000050AE050EA0102EE
:1004400008BF704730B511F0004502D5404261EB5E
:1004500041014FF4806404F132045FEA915C3FF49F
:10046000D8AE4FF003025FEADC0C18BF03325FEA3C
:10047000DC0C18BF033202EBDC02C2F1200300FAED
:1004800003FC20FA02F001FA03FE40EA0E0021FA12
:1004900002F11444BDE600BF4FEA4102B2F1E0436D
:1004A00024BFB3F5001CDCF1FE5C0DD901F0004C5B
:1004B0004FEAC0024CEA5070B2F1004F40EB8300AB
:1004C00008BF20F00100704711F0804F21D113F1D7
:1004D0003872BCBF01F00040704741F480114FEA10
:1004E0005252C2F11802C2F1200C10FA0CF320FA99
:1004F00002F018BF40F001004FEAC1234FEAD323B6
:1005000003FA0CFC40EA0C0023FA02F34FEA43031F
:10051000CCE77FEA625307D150EA01331EBF4FF0A8
:10052000FE4040F44000704701F0004040F0FE40C3
:1005300040F40000704700BF80F0004002E000BFC0
:1005400081F0004142001FBF5FEA410392EA030FBE
:100550007FEA226C7FEA236C6AD04FEA1262D2EB08
:100560001363C1BFD218414048404140B8BF5B420D
:10057000192B88BF704710F0004F40F4000020F0A6
:100580007F4018BF404211F0004F41F4000121F0BC
:100590007F4118BF494292EA030F3FD0A2F1010206
:1005A00041FA03FC10EB0C00C3F1200301FA03F144
:1005B00000F0004302D5494260EB4000B0F5000F67
:1005C00013D3B0F1807F06D340084FEA310102F126
:1005D0000102FE2A51D2B1F1004F40EBC25008BFD8
:1005E00020F0010040EA03007047490040EB0000A2
:1005F000013A28BFB0F5000FEDD2B0FA80FCACF1A3
:10060000080CB2EB0C0200FA0CF0AABF00EBC250CF
:1006100052421843BCBFD0401843704792F0000FBD
:1006200081F4000106BF80F400000132013BB5E710
:100630004FEA41037FEA226C18BF7FEA236C21D086
:1006400092EA030F04D092F0000F08BF08467047EB
:1006500090EA010F1CBF0020704712F07F4F04D1B9
:10066000400028BF40F00040704712F100723CBFCC
:1006700000F50000704700F0004343F0FE4040F4F6
:10068000000070477FEA226216BF08467FEA2363B4
:100690000146420206BF5FEA412390EA010F40F49F
:1006A000800070474FF0000304E000BF10F00043EB
:1006B00048BF40425FEA000C08BF704743F09643D2
:1006C00001464FF000001CE050EA010208BF7047ED
:1006D0004FF000030AE000BF50EA010208BF704774
:1006E00011F0004302D5404261EB41015FEA010C89
:1006F00002BF84460146002043F0B64308BFA3F181
:100700008053A3F50003BCFA8CF2083AA3EBC25362
:1007100010DB01FA02FC634400FA02FCC2F1200281
:10072000BCF1004F20FA02F243EB020008BF20F0B8
:100730000100704702F1200201FA02FCC2F120021E
:1007400050EA4C0021FA02F243EB020008BF20EA13
:10075000DC7070474FF0FF0C1CEAD0521EBF1CEA41
:10076000D15392EA0C0F93EA0C0F6FD01A4480EA2F
:10077000010C400218BF5FEA41211ED04FF0006318
:1007800043EA501043EA5111A0FB01310CF0004044
:10079000B1F5000F3EBF490041EAD3715B0040EA6A
:1007A000010062F17F02FD2A1DD8B3F1004F40EB3A
:1007B000C25008BF20F00100704790F0000F0CF00D
:1007C000004C08BF49024CEA502040EA51207F3AD1
:1007D000C2BFD2F1FF0340EAC250704740F40000AC
:1007E0004FF00003013A5DDC12F1190FDCBF00F09D
:1007F00000407047C2F10002410021FA02F1C2F14B
:10080000200200FA02FC5FEA310040F1000053EAE6
:100810004C0308BF20EADC70704792F0000F00F034
:10082000004C02BF400010F4000F013AF9D040EA3A
:100830000C0093F0000F01F0004C02BF490011F4CE
:10084000000F013BF9D041EA0C018FE70CEAD153CC
:1008500092EA0C0F18BF93EA0C0F0AD030F0004C4C
:1008600018BF31F0004CD8D180EA010000F0004000
:10087000704790F0000F17BF90F0004F084691F0BE
:10088000000F91F0004F14D092EA0C0F01D14202F8
:100890000FD193EA0C0F03D14B0218BF084608D1C1
:1008A00080EA010000F0004040F0FE4040F400000B
:1008B000704740F0FE4040F4400070474FF0FF0C9E
:1008C0001CEAD0521EBF1CEAD15392EA0C0F93EAE5
:1008D0000C0F69D0A2EB030280EA010C49024FEA37
:1008E000402037D04FF0805343EA111143EA1013F0
:1008F0000CF000408B4238BF5B0042F17D024FF4A8
:10090000000C8B4224BF5B1A40EA0C00B3EB510F82
:1009100024BFA3EB510340EA5C00B3EB910F24BF6B
:10092000A3EB910340EA9C00B3EBD10F24BFA3EBF0
:10093000D10340EADC001B0118BF5FEA1C1CE0D1B8
:10094000FD2A3FF650AF8B4240EBC25008BF20F06B
:10095000010070470CF0004C4CEA50207F32C2BFBF
:10096000D2F1FF0340EAC250704740F400004FF05C
:100970000003013A37E792F0000F00F0004C02BF8D
:10098000400010F4000F013AF9D040EA0C0093F057
:10099000000F01F0004C02BF490011F4000F013BB1
:1009A000F9D041EA0C0195E70CEAD15392EA0C0F19
:1009B00008D142027FF47DAF93EA0C0F7FF470AF51
:1009C000084676E793EA0C0F04D14B023FF44CAF94
:1009D00008466EE730F0004C18BF31F0004CCAD129
:1009E00030F000427FF45CAF31F000437FF43CAF65
:1009F0005FE700BF4FF0FF3C06E000BF4FF0010C87
:100A000002E000BF4FF0010C4DF804CD4FEA400268
:100A10004FEA41037FEA226C18BF7FEA236C11D0B2
:100A200001B052EA530C18BF90EA010F58BFB2EB65
:100A3000030088BFC81738BF6FEAE17018BF40F0E5
:100A4000010070477FEA226C02D15FEA402C05D199
:100A50007FEA236CE4D15FEA412CE1D05DF8040B1E
:100A6000704700BF844608466146FFE70FB5FFF7B1
:100A7000C9FF002848BF10F1000F0FBD4DF808ED69
:100A8000FFF7F4FF0CBF012000205DF808FB00BF5A
:100A90004DF808EDFFF7EAFF34BF012000205DF8B4
:100AA00008FB00BF4DF808EDFFF7E0FF94BF012001
:100AB00000205DF808FB00BF4DF808EDFFF7D2FFFE
:100AC00094BF012000205DF808FB00BF4DF808ED41
:100AD000FFF7C8FF34BF012000205DF808FB00BF0E
:100AE0004FEA40024FEA41037FEA226C02D15FEAFB
:100AF000402C08D17FEA236C02D15FEA412C02D15D
:100B00004FF0000070474FF0010070474FEA40027D
:100B1000B2F1FE4F0FD34FF09E03B3EB12620DD92B
:100B20004FEA002343F0004310F0004F23FA02F095
:100B300018BF404270474FF00000704712F1610F3C
:100B400001D1420205D110F0004008BF6FF0004013
:100B500070474FF00000704742000ED2B2F1FE4FD6
:100B60000BD34FF09E03B3EB126209D44FEA00237C
:100B700043F0004323FA02F070474FF00000704743
:100B800012F1610F01D1420202D14FF0FF307047E4
:100B90004FF00000704700BF10B5054C237833B903
:100BA000044B13B10448AFF300800123237010BD40
:100BB0005C020020000000001893000808B5034BF9
:100BC0001BB103490348AFF3008008BD00000000DB
:100BD00060020020189300080122014B1A70704730
:100BE000780200200222014B1A7070477802002020
:100BF0000322014B1A70704778020020012A02D1AB
:100C0000016000207047022A05D0032AF9D0002A8B
:100C1000F7D10260F5E70B680360F2E70368184755
:100C2000836810B5044613B1032201469847204655
:100C300010BD000038B5134800F0AEFA0822124982
:100C4000104800F0AFFA1149114807F0B5FD012135
:100C50001F2008F0D7F84FF4C8740A4D013C012159
:100C60002846A4B200F0DDFD002CF7D121461F205C
:100C700008F0C8F80749064807F09EFD064B1C70AF
:100C800038BD00BF18000020EE9300083093000824
:100C9000480F00203B9300087802002010B5041E86
:100CA0000DDB0121052008F0ADF80021042008F03B
:100CB000A9F82146BDE810400C2007F0D7BF00215D
:100CC000052008F09FF80121042008F09BF86442F9
:100CD000EFE710B5041E0DDB0021062008F092F8A6
:100CE0000121072008F08EF82146BDE81040C02001
:100CF00007F0BCBF0121062008F084F8002107207E
:100D000008F080F86442EFE708B50121052008F0FB
:100D100079F80021042008F075F8FF210C2007F075
:100D2000A5FF0121062008F06DF80021072008F03A
:100D300069F8FF21C02007F099FF4FF47A7008F09E
:100D4000DFF800210C2007F091FF0021C02007F000
:100D50008DFF00211E2008F055F800211F2008F00B
:100D600051F80022014B1A7008BD00BF7802002024
:100D70000022C0E90012024AC260024A8260704743
:100D80001D0C0008FD0B000830B5062285B04FF49D
:100D90001651314807F080FC01211F2007F0D4FFD5
:100DA00001211E2007F0D0FF0121052007F0CCFF14
:100DB0000121042007F0C8FF01210C2007F0C4FF27
:100DC0000121062007F0C0FF0121072007F0BCFF2A
:100DD0000121C02007F0B8FF0221112007F0B4FF65
:100DE0001E4D0221122007F0AFFF0221132007F051
:100DF000ABFFEC6C6846631C18BF13241849FFF75F
:100E0000B7FF69460322204607F0EEFD6846FFF76C
:100E100007FFAC6C6846621C18BF12241149FFF72B
:100E2000A7FF03226946204607F0DEFD6846FFF76C
:100E3000F7FE6C6C6846611C18BF11240A49FFF765
:100E400097FF03226946204607F0CEFD6846FFF76C
:100E5000E7FE05B030BD00BF480F00202499000810
:100E6000D90B0008E50B0008F10B0008014800F061
:100E7000A4BD00BF18000020F7B5494807F094FA58
:100E8000012814DD464C204607F04AFCC0B20A286F
:100E9000F9D00D28F7D00422424B41481A7007F0D0
:100EA000E2FB642003B0BDE8F04008F029B801235C
:100EB0003D491A463D4800F03FFD04463C4938484C
:100EC00007F07AFC21460A22354807F0B6FC394F74
:100ED000394B38681D68394A0544B5F57A7FA8BF93
:100EE0004FF47A759542B8BF1546A4F6AC541D6010
:100EF000201AFFF7DBFB324B1968FFF72BFC064685
:100F00002046FFF7D3FB2F4B1968FFF723FC014660
:100F10003046FFF717FB06462846FFF7C7FB2A4B6C
:100F20001968FFF717FC01463046FFF70BFB274B0C
:100F30003C601D68FFF7EAFDFF236E422A463146FA
:100F400000936FF0FE0307F0CDFDFF28A8BFFF2040
:100F50006FF0FE039842B8BF18461D4B18601D4B3A
:100F60001D681D4B2D1A1B681844FFF7B2FE28465A
:100F7000FFF794FE002C0ADD01211E2007F042FF3E
:100F800000211F2003B0BDE8F04007F03BBF05D0B3
:100F900000211E2007F036FF0121F2E703B0F0BD6B
:100FA000480F00207802002088020020180000204E
:100FB00043930008840200208002002018FCFFFFF9
:100FC00010000020140000200C0000200800002069
:100FD0007C0200200000002004000020000000002F
:100FE000F8B507464C4807F0DFF9002844DD4A4CC5
:100FF000204607F095FBC3B20A2BF9D00D2BF7D092
:101000002B2F464E464D474C56D1313B032B2DD806
:10101000DFE803F0020E1A263068FFF7E5F93CA37B
:10102000D3E90023FFF782F8FFF736FA30601DE0BE
:101030002868FFF7D9F936A3D3E90023FFF776F83C
:10104000FFF72AFA286011E02068FFF7CDF930A3F6
:10105000D3E90023FFF76AF8FFF71EFA206005E0E6
:101060000020FFF736FE0020FFF718FE2A4807F0A1
:10107000FAFA02222C4B1A702C49274807F082FBFF
:10108000264B02221968244807F06AFC28492248A6
:1010900007F078FB224B022219681F4807F060FC1A
:1010A00024491D4807F06EFB1E4B022219681A489E
:1010B000BDE8F84007F054BC2D2FD7D1313B032BAE
:1010C000D4D801A252F823F0D9100008EB10000880
:1010D000FD100008611000083068FFF785F90CA3C7
:1010E000D3E90023FFF720F89EE72868FFF77CF993
:1010F00007A3D3E90023FFF717F8A1E72068FFF75C
:1011000073F903A3D3E90023FFF70EF8A4E700BFA8
:101110009A9999999999B93F480F00201400002095
:10112000100000200C0000207802002049930008E5
:101130004D9300085193000808B50C4807F034F9A6
:10114000012811DD094807F0EBFAC0B20A28F9D0EE
:101150000D28F7D0FFF744FF044807F084FABDE8F4
:101160000840642007F0CCBE08BD00BF480F002037
:10117000084B1B78013B032B0BD8DFE803F002047C
:101180000608FFF757BDFFF777BEFFF7BDBDFFF7B6
:10119000D3BF7047780200200223037640F2FF336A
:1011A000838470471F2A28BF1F22F8B5C7690446E9
:1011B0000E4638461146154607F08CFFE06188B9A7
:1011C0003846BDE8F84007F0CFBEF15CE269D15483
:1011D0000133DAB29542F8D8002384F82050237006
:1011E0002373F8BD0023F4E710B5044690F82700F8
:1011F000FF2805D0002107F0A7FDFF2384F8273042
:1012000094F82800FF2805D0002107F09DFDFF235A
:1012100084F82830002384F8293010BDF8B504463E
:1012200017460E4689B390F82930022B2BD00025A3
:1012300007B1BDB9F8BD002594F82930022BF7D1CC
:1012400016F0FD06F4D194F82800FF28F0D007F03E
:1012500015FE0128ECD1314694F8280007F0D2FDA4
:10126000002FE7D0164B174A1B6894F82A10B3FBDF
:10127000F2F3154AD1B9C8214B4350685168091A95
:101280008B42FBDCD6E701290ED194F82700FF281A
:10129000D1D007F0F3FD01280546CCD1002194F808
:1012A000270007F0AFFDC7E70025C9E74FF49661B7
:1012B0004B4350685168091A8B42FBDCBAE700BF08
:1012C0007000002040420F00001000E02DE9F843BC
:1012D00090F82A3005460C4663B90121204607F0F4
:1012E00091FD07F00BFE95F82A3087B2D3B9384646
:1012F000BDE8F883084607F0C1FD0128EDD10021C3
:10130000204607F07FFD204B204A1B682049B3FB95
:10131000F2F34FF49662534348684A68121A9342B4
:10132000FBDCDAE795F82B30002BE0D072B64FF0FB
:101330000008174EDFF8509095F82B205FFA88F3DD
:101340009A4201D862B6D2E7D9F800300F4A7168E4
:10135000B3FBF2F273685B1A9A42FBDC0021204671
:1013600007F050FDD9F80030084A7168B3FBF2F27B
:1013700073685B1A9A42FBDC0121204607F042FDAC
:1013800008F10108D8E700BF7000002040420F00BC
:10139000001000E02DE9F0410446904600250E467D
:1013A00021B390F82930022B1ED02F46B8F1000F40
:1013B00047D0002F45D094F82A30002B4AD02C4C2F
:1013C0002C4E07F09BFD401B80B2B0F5967F38D2C3
:1013D000294A33686168B3FBF2F30A225343626817
:1013E000521A9342FBDCECE701292CD194F8270038
:1013F000FF280ED094F82A303BB1204694F82710ED
:10140000FFF764FF0127054604E007F037FD0028D9
:10141000F3D0002794F82930022BC7D116F0FD0F26
:10142000C4D194F82800FF28C0D094F82A3063B1C2
:10143000204694F82810FFF749FF0546B8F1000F41
:10144000B9D1BDE8F0812F46E8E707F017FD002885
:10145000EED0ABE7074B084A1B680549B3FBF2F334
:10146000C822534348684A68121A9342FBDCE8E7F3
:10147000001000E07000002040420F0070B50446EC
:101480000D46032929D8DFE801F0020E29080122C0
:10149000BDE870400021FFF77DBF0122BDE870402C
:1014A0000021FFF7BBBE022100222046FFF7B6FE57
:1014B00007F024FD0122064629462046FFF76AFF71
:1014C00094F82A304BB10C4C0C4DB6B207F016FD17
:1014D000831B9BB2B3F5966F02D370BD0121E3E786
:1014E000074A2B686168B3FBF2F30A225343626830
:1014F000521A9342FBDCE9E7001000E07000002084
:1015000040420F002DE9F0471F46C36904460E46CE
:101510001546002B54D0037E012B53D0022B4FD104
:101520002B46002190F820209A4275D84FF00009F0
:1015300094F826205FFA89F39A4200F2868094F8A4
:1015400020105008A9423BD936F815300344B3FBAC
:10155000F2F326F815303D44EDB2F3E7A38C0121F8
:1015600026F81830E36913F8080007F0EDFBE3698B
:10157000012113F8080007F045FCB8445FFA88F829
:1015800094F820304345E9D8314B324A1B68324940
:10159000B3FBF2F30A22534348684A68121A934293
:1015A000FBDC72B607F0AAFCA846824694F820300D
:1015B000434509D862B64FF00008A38C43450DD8C7
:1015C000BDE8F0879046DBE7E369002113F80800E7
:1015D000B84407F0B9FB5FFA88F8E7E772B607F09E
:1015E0008DFCA946A0EB0A081FFA88F894F8203071
:1015F0004B4501D862B6E0E7E36913F8090007F04C
:101600003DFC28B936F81930434588BF26F81980C3
:10161000B9445FFA89F9E9E726F813103B44DBB2D5
:1016200082E7E36913F8080007F00AFB36F8183080
:10163000184426F81800B8445FFA88F894F8203067
:101640004345EED809F1010972E7A846F6E700BF65
:101650007000002040420F00001000E070B504460A
:101660000D46164690B0052A2ED8DFE802F003108A
:10167000102F2F0701220021FFF7D0FD01230022A8
:101680002946204610B0BDE87040FFF73BBF01225D
:101690000021FFF77FFE0123002229462046FFF7A5
:1016A00031FF012200212046FFF7B8FD022E0BD1A9
:1016B0006946012300222046FFF724FF002194F809
:1016C0002030CAB293421BD810B070BD0121FFF781
:1016D000D5FE0223002229462046FFF713FF0221F0
:1016E0002046FFF7CBFE0223012229462046FFF7C2
:1016F00009FF012200212046FFF790FD042ED6E7C6
:1017000010AB03EB420030F8400CA38C01311B1AE4
:1017100035F8120003449BB225F81230A08C8342A6
:1017200028BF034625F81230C9E72DE9F0470D78A8
:1017300006460C461746B0B015BBD1F8088090F8A5
:1017400020104046490007F0C5FCA06028B940467B
:1017500030B0BDE8F04707F007BCD4F8048096F835
:1017600020104046490007F0B5FC60600028EED02C
:101770002B4696F82010DAB2914220D8012323702C
:1017800000253A4630466946FFF768FF0DF1800CA8
:1017900010A8E846034662464FF0000E96F82090E7
:1017A0005FFA8EF1894512D80135EDB20A2DE8D1E4
:1017B0000023DAB2914521D830B0BDE8F087A268A5
:1017C00022F81350B28C20F813200133D3E7B8F875
:1017D000001075B1B3F800A08A450DD3B2F800A08F
:1017E0008A4507D80EF1010E023208F102080233D1
:1017F000D6E719801180F5E71980EFE7A1683CF87A
:10180000025B31F813605A00AE4238BF21F8135022
:10181000616830F8025B8E5A0133AE4288BF8D5248
:10182000C7E7052938B505460C4619D04B1E012BD4
:101830000FD801222946FFF778FF1523E340DB0785
:101840000ED5284605F10C010022BDE83840FFF70F
:101850006CBFCB1E012B01D80322EBE70429ECD986
:1018600038BD052A2DE9F84304460E46154606D034
:10187000531E012B01D9042A03D1237813B9BDE8E3
:10188000F88306D81523EB40DB0702D5237B002B1A
:10189000F5D031462A462046FFF7E0FE00224FF4FD
:1018A0007A7C94F82000B11E05F0FD06D3B2834285
:1018B000E5D2012E4FEA42081CD1A368676833F8CD
:1018C000123037F812E0A3EB0E039BB24BB14F88F6
:1018D000A7EB0E070CFB07F797FBF3F31BB2002BEC
:1018E00028DBB3F57A7FA8BF4FF47A7321F8023F63
:1018F0000132DBE7236933F812E0636933F8123011
:10190000002DE0D06768B4F8249037F80870774568
:101910009EBF4F44A7EB0E071FFA87FEA76888BF3C
:10192000CE4637F808709F429BBF4F44FF1A4B4684
:10193000BBB2C8E70023D9E7052A2DE9F0410646E6
:101940000F46984602D10020BDE8F0810024FFF741
:1019500088FF2046224621464FF47A7C96F82030B4
:10196000E5B2AB420ED819BB4FF4FA72013B5A43B1
:10197000B18D9142E7DBC3EB431203EB8200C00061
:1019800080B2E1E737F81450B8F1000F02D0C5F586
:101990007A75ADB2C82D09D8322D05D904FB05FEE4
:1019A0000CFB0E22284480B20134D9E70121F5E76F
:1019B000B2FBF0F290B2B085C6E710B50446FFF76F
:1019C00013FCE06908B107F0CFFAA06808B107F08E
:1019D000CBFA606908B107F0C7FA606808B107F090
:1019E000C3FA206908B107F0BFFA204610BD70475E
:1019F00038B50E4B05461A784FF47A73B3FBF2F301
:101A00000B4A1068B0FBF3F000F0F0FB044658B945
:101A10000F2D09D8024629464FF0FF3000F096FB03
:101A20002046044B1D6038BD0120FCE74800002023
:101A3000700000204C000020074A08B513680320FE
:101A400043F01003136000F06FFB0020FFF7D0FF9E
:101A5000FFF7CDFF002008BD00200240034A044BE1
:101A600011681B780B441360704700BF9802002078
:101A700048000020014B1868704700BF9802002002
:101A8000F7B5002604460D460196FFF7F3FF2368DD
:101A900007469A68D10508D50120A36A84F8246016
:101AA00043F02003A36203B0F0BD5A68D20503D40B
:101AB000DB6A13F4700F3DD03D4B02201E6801F02D
:101AC000CBFE23683B4A1969B6FBF0F611423A4A4D
:101AD00051D1D868394908424DD1196911425BD1B9
:101AE000DA68374B1A420CBF142329235E43019B4B
:101AF000B34223D26A1C04D0002D53D1019BB342C0
:101B00000AD3019B01330193F1E76E1C13D065B931
:101B100023681B6898070DD4A36A032043F00403CD
:101B2000A362002384F82430BDE7FFF7A3FFC01BA6
:101B3000A842EDD8226813689907E6D56FF0120322
:101B400022681360A36A43F40073A362936803F4EA
:101B50006023B3F5602F0CD1237B53B9A36A23F420
:101B60008073A362A36ADB0403D4A36A43F0010376
:101B7000A362002097E71969114203D1D968104A7E
:101B800011420BD019690F4A114209D1DB68134287
:101B90000CBF5423FC23A9E72923A7E75423A5E777
:101BA000FC23A3E7FFF766FFC01BA842A6D8A8E75F
:101BB0007000002024499224922449122449920062
:101BC00092244900499224000368D86C70470000B1
:101BD000002373B5019390F824300446012B6CD098
:101BE000012380F824304D680268062D086805EB53
:101BF000850322D81F26556B053B9E4025EA060526
:101C000000FA03F32B43536309288B6800EB40056C
:101C10004FF0070129D9D6681E3DA94026EA0101E7
:101C2000AB400B43D360A0F11003012B25D900205A
:101C3000002384F8243002B070BD0C2D4FF01F0536
:101C400009D8166B233B9D4026EA050500FA03F3ED
:101C50002B431363D8E7D66A413B9D4026EA05052E
:101C600000FA03F32B43D362CEE71069A94020EAC0
:101C70000101AB400B431361D9E7114B9A4216D1D6
:101C800093681B02D3D49368102843F40003936035
:101C9000CDD10C4B0C4A1B68B3FBF2F30A22534321
:101CA0000193019B002BC2D0019B013BF8E7A36A83
:101CB000012043F02003A362BAE70220BBE700BF84
:101CC000002401407000002040420F00806A7047ED
:101CD000002337B50193036804469A68D20702D5FA
:101CE000002003B030BD9A6842F001029A60144BA4
:101CF000144A1B68B3FBF2F30193019BE3B9FFF7AE
:101D0000B9FE054623689B68DB07E9D4FFF7B2FEFE
:101D1000401B0228F6D923689B6813F00103F1D118
:101D2000A26A012042F01002A262E26A84F8243022
:101D300042F00102E262D4E7019B013BDCE700BF15
:101D40007000002040420F0010B590F82430044687
:101D5000012B54D0012380F82430FFF7B9FF00286D
:101D600049D1A36A274A23F4407323F0010343F4C3
:101D70008073A3622368934204D123494A6812F412
:101D8000702F2ED1A26A22F48012A2625A685205E4
:101D900041BFA26A22F4405242F48052A262A26A77
:101DA00012F480521CBFE26A22F00602E2620022B4
:101DB00084F824206FF002021A609A6802F460220C
:101DC000B2F5602F13D10F4A934205D1A2F580627C
:101DD000526812F4702F0AD19A6842F4A0029A60F5
:101DE00010BDA26A42F48012A2624A68CFE79A68E4
:101DF00042F48012F3E7002384F82430F0E7022055
:101E0000EEE700BF002801400024014038B5036818
:101E100004469A68D10701D4002038BD9A6822F0A0
:101E200001029A60FFF726FE054623689B68DB07E0
:101E3000F2D5FFF71FFE401B0228F6D923689B68E6
:101E4000DA07F2D5A36A012043F01003A362E36A24
:101E500043F00103E362E0E7F8B5044600286DD0E3
:101E6000836A23B9C36280F8243003F095FD2046CD
:101E7000FFF7CCFFA36A13F0100361D100285FD1F4
:101E8000A26A616822F4885222F0020242F0020241
:101E9000E569A668A262227B2943B6F5807F41EA04
:101EA000420136D0771E7D427D412D02277D012FD4
:101EB00006D182BBA269013A45EA423242F400658A
:101EC0002268B6F5807F576827F4694745EA070519
:101ED000556097681D4D05EA070545EA01059560BF
:101EE00001D0012E02D12369013B1B05D56A25F4DF
:101EF00070052B43D3629268154B1340994213D15E
:101F00000023E362A36A23F0030343F00103A36207
:101F1000F8BD3546CAE7A26A42F02002A262E26A30
:101F200042F00102E262CBE7A36A23F0120343F01E
:101F30001003A362E36A43F00103E3620120E7E7D1
:101F4000A36A43F01003A362F8E700BFFDF7E1FFC7
:101F5000FE0E1FFF38B50446002850D0836A43F0B8
:101F600002038362FFF752FF0546002842D16FF05B
:101F70001F02236820461A605968224A0A405A60A4
:101F80009968214A0A409A60DA6802F07F42DA6072
:101F90001A6902F040421A6159691C4A114059619C
:101FA000996911409961D9691140D961196A114043
:101FB0001962596A11405962996A0A409A62DA6A4A
:101FC000134902F07F42DA62DA6A02F07F42DA6293
:101FD0001A6B02F040421A635A6B02F040425A6395
:101FE0009A6B0A409A639A6B0A409A6303F006FD63
:101FF000E562A562002384F82430284638BD012517
:10200000FBE700BF00003FFFF00601FF00F0FFFF0D
:102010000000C0FF10B590F824300446012B11D009
:10202000012380F82430FFF7F1FE38B9A36A23F4C6
:10203000885323F0010343F00103A362002384F8D3
:10204000243010BD0220FCE7002373B5019390F803
:1020500024300446012B62D0012380F82430FFF79E
:10206000D5FE2046FFF734FE054600282FD1A36A8F
:10207000022023F4885323F0020343F00203A362F7
:10208000284B1E6801F0E8FBB6FBF0F676000196DF
:10209000019B03BB2268936843F008039360FFF73A
:1020A000E9FC064623689A68110718D49A6842F03A
:1020B00004029A60FFF7DEFC064623689B685B0714
:1020C00023D4A36A23F0030343F00103A362002394
:1020D00084F8243016E0019B013B0193D8E7FFF719
:1020E000C9FC801B0A28DDD923689B681807D9D54D
:1020F000A36A012523F0120343F01003A362002317
:1021000084F82430284602B070BDFFF7B3FC801B72
:102110000A28D2D923689B685A07CED5E8E702255A
:10212000F0E700BF7000002007490302CA6803F40B
:10213000E06322F4E0621204120C134343F0BF6325
:1021400043F40033CB60704700ED00E0154B30B531
:10215000DC68C4F30224C4F10703251D042B28BF47
:102160000423062D4FF0FF3594BF0024033C05FAED
:1021700003F321EA0303A54022EA0502A340002855
:1021800043EA0203ACBF00F16040074A4FEA031381
:10219000DBB2ABBF00F5614000F00F0080F8003308
:1021A000135430BD00ED00E014ED00E0002807DB23
:1021B00001234109034A00F01F00834042F8213007
:1021C000704700BF00E100E000280CDB0122064957
:1021D000430900F01F008240203341F82320BFF361
:1021E0004F8FBFF36F8F704700E100E00138B0F10F
:1021F000807F0BD24FF0E023F021054A586182F82E
:1022000023100020072298611A617047012070474F
:1022100000ED00E0002808DB01224309034900F03B
:102220001F008240603341F82320704700E100E046
:10223000704708B5FFF7FCFF08BD704710B50446AE
:1022400050B1437903F0FF0213B90271FFF7F5FFB4
:1022500001230020637110BD0120FCE790F82120CC
:102260000346022A06D0042282630120002283F85A
:10227000202070470268C06B116821F00E011160C8
:10228000116821F00101116001211A6C01FA02F2BA
:102290004260002083F82110E8E7000008B590F8BC
:1022A0002130022B03D004238363012008BD03687F
:1022B0001A6822F00E021A601A6822F001021A60EF
:1022C000174A93421FD0143293421ED014329342C5
:1022D0001DD0143293421DD0143293421DD01432BB
:1022E000934214BF4FF080734FF480130D4A536034
:1022F000012380F82130002380F82030436B03B1A4
:1023000098470020D2E70123F0E71023EEE74FF4CF
:102310008073EBE74FF48053E8E74FF48033E5E751
:1023200008000240000002402DE9F74F00244FF062
:102330000F0E2646DFF884C1614B00F104080A68DD
:1023400032FA06F502D103B0BDE8F08F012505FA97
:1023500006F702EA070537EA020276D14A68032A3D
:1023600007D8013A022A00F28380DFE802F0919652
:102370009C00122A00F0948069D8112A00F08A800B
:10238000FF2D94BF8146C1464FEA8602D9F80070FE
:1023900088BF203A0EFA02FA27EA0A0704FA02F284
:1023A0001743C9F80070D1F8049019F0805F4CD041
:1023B000DCF8182026F0030742F00102CCF81820C0
:1023C000DCF8182007F1804702F00102019207F5BE
:1023D000803706F0030A019A4FEA8A0ABA680EFAB1
:1023E0000AFB22EA0B0B374A904260D002F580626A
:1023F00090425ED002F5806290425CD002F580622D
:10240000904214BF0422032202FA0AF242EA0B02AB
:10241000BA609A6819F4801F14BF2A43AA439A60CD
:10242000DA6819F4001F14BF2A43AA43DA605A6815
:1024300019F4003F14BF2A43AA435A601A6819F4DA
:10244000803F14BF2A43AA431A60013677E7DFF8BA
:1024500078904A450CD014D8A9F580194A4507D080
:1024600009F570294A4503D0A9F580194A4587D155
:102470008A68D2B1012A4FF008040CBF0761476196
:102480007EE7DFF848904A45F2D009F58039EDE75C
:10249000CC6875E7CC68043472E7CC6808346FE721
:1024A000CC680C346CE700246AE7042468E7002257
:1024B000AAE70122A8E70222A6E700BF0010024017
:1024C000000401400008014000002210000031100B
:1024D000044A08B55169014202D0506103F044FC3E
:1024E00008BD00BF00040140F0B5044687B010B33A
:1024F00090F8A93203F0FF021BB980F8A82205F07A
:1025000001FD032325466E4684F8A93255F8100BC9
:1025100002F0A1FC0FCD0FC62B6825463360271DA6
:1025200055F8100B97E80E0002F085FC064630B116
:10253000022384F8A9320125284607B0F0BD0146E0
:10254000206802F092FC31464FF0010E28260A4620
:10255000D4F804C0C8B2844501F101011DD800219E
:1025600028260A46C8B2844501F1010121D80FCDC1
:102570006E460FC62B683360206897E80E0002F0A5
:1025800076FC05460028D3D1012384F82400206876
:1025900084F8A93202F024FFCEE706FB0043C3E92A
:1025A0000E2283F829E083F8280083F82B201A6490
:1025B000D0E706FB0043C3E95E2283F8692183F874
:1025C000680183F86B21C3F88021CBE738B590F818
:1025D000A8320446012B10D0012580F8A8520068CB
:1025E00002F030FC2946204600F01FFE206802F071
:1025F000F5FE002084F8A80238BD0220FCE710B5E3
:1026000090F8A8220446012A0BD0012280F8241059
:1026100080F8A822006802F0DBFE002084F8A802FF
:1026200010BD0220FCE700002DE9F04F044685B004
:10263000006802F0D7FE10F4004500F03A84282725
:10264000DFF824832068B0F844301B0402D405B0BE
:10265000BDE8F08FB0F84450A9B215F00F0540F076
:10266000C58011F010012BD103889BB203EA080347
:1026700043F400430380B0F8503094F828209BB214
:1026800003EBC20300EB4303B3F80434E26BC3F380
:1026900009031A4463642046E26305F094FC94F84D
:1026A0002430002BCED0226C2168002ACAD194F8A5
:1026B000243043F08003A1F84C3084F82420C1E793
:1026C0000588ABB215F4006521D0B0F8503094F80D
:1026D00068219BB203EBC20300EB4303B3F80C3455
:1026E000B4F86E21C3F30903C4F8843104F52C71E6
:1026F00003F0C3F822682046138823F070031B05FB
:102700001B0D43F08003138005F04EFC9AE719047B
:1027100098D5038823F070031B051B0D43F080033D
:102720000380B0F8503094F868219BB203EBC203E9
:1027300000EB4303B3F80C34C3F30903C4F884314A
:102740008BB1D4F87C1171B1B4F86E2103F095F817
:10275000D4F87C31D4F88421294613442046C4F8A7
:102760007C3105F027FC21680A8893B212053FF5F9
:1027700069AF03F44053B3F5405F3FF463AFB1F882
:10278000502001F20C4092B2835AC3F309038352E2
:10279000D4F878313E2B1DD95D09DB06835A08BF7A
:1027A00005F1FF359BB243EA85236FEA43436FEAA5
:1027B00053439BB283520B8823F4804323F070036E
:1027C0001B041B0C83F4405343F4004343F0800389
:1027D0000B8037E70BB9835AE7E75D08DE07835ABA
:1027E00048BF01359BB243EA8523E2E730F8253044
:1027F0009EB21B0440F1F78030F8253007FB0541FD
:1028000023F070031B051B0D43F0800320F82530D7
:1028100091F8743100F5806EBBB9B0F8503091F882
:1028200068219BB2063303EBC2033EF81390C9F351
:102830000909B9F1000F00F0BB804B46B1F86E21D9
:10284000D1F87C1103F019F8B2E091F86B3191F8EE
:102850006821022B40F08A80B0F850904FEAC20BFA
:102860001FFA89F916F4804AD1F88031D94406F06C
:10287000400C3CD009F102093EF81990C9F309094E
:10288000994513D90023C1F8803130F8223023F460
:10289000804323F070031B041B0C83F4005343F4A8
:1028A000004343F0800320F8223005E0A3EB090346
:1028B000C1F88031002BE8D0BCF1000F0DD030F80A
:1028C000223023F4E04323F070031B041B0C43F479
:1028D000004343F0C00320F82230B9F1000F67D065
:1028E000282101FB05414B46B1F87021A8E709F109
:1028F00006093EF81990C9F30909994512D9C1F89A
:1029000080A130F8223023F4804323F070031B04AD
:102910001B0C83F4005343F4004343F0800320F87E
:10292000223005E0A3EB0903C1F88031002BE8D089
:10293000BCF1000F0DD130F8223023F4E04323F036
:1029400070031B041B0C43F4004343F0C00320F846
:102950002230B9F1000F2BD0282101FB05414B4655
:10296000B1F872216CE700BF0F8FFFFF30F8223003
:1029700023F4E04323F070031B041B0C43F40043D7
:1029800043F0C00320F8223091F8682130F822305B
:10299000D20013F4804FB0F850309BB255D00233C0
:1029A00013443EF81390C9F30909B9F1000F9AD105
:1029B00007FB05F16318D3F884214A44C3F8842146
:1029C000D3F87C214A44C3F87C21D3F880211AB182
:1029D000D3F87831994542D207FB0543204693F856
:1029E000681105F0E7FA310620687FF52BAE30F864
:1029F000253007FB05499BB203EA080343F4004373
:102A000020F8253099F82B30012B52D1002199F86C
:102A10003430C9F840109BB316F0400699F82920CD
:102A200099F8283032D00ABBB0F850201B0192B27E
:102A300000F2044010441A5AC2F309021A521A5AF8
:102A400092B242F400421A521AE006331A443EF897
:102A50001290C9F30909B9F1000FA9D07FE701F578
:102A6000B4712068214402F0D3FCBCE7012A07D1ED
:102A7000B0F8502000F2044092B21B0110441952E9
:102A800099F82810204605F09EFADBE532B9B0F837
:102A900050201B0192B200F20C40CBE7012AEFD18B
:102AA000B0F8502000F20C4092B21B0110441E52AC
:102AB000E6E799F8281016F4807CD9F840304FEA00
:102AC000C10A00F5806E20D1B0F8502092B2524475
:102AD00002323EF81220C2F309029A4202D3C9F828
:102AE00040C0CFE79B1AC9F84030D9F83C3005FB0D
:102AF00007711344C9F83C30D9F8443021441344D9
:102B0000C9F8443002F084FC9CE516F0400206F45B
:102B1000804600F0E980B0F85020B6B292B252443C
:102B200002323EF812C02822CCF3090C9C4528BF83
:102B3000002302FB054238BFA3EB0C031364002BF8
:102B400051D199F82920002A3AD1B0F8502000F24A
:102B5000044592B20B011544EA5AC2F30902EA5243
:102B6000EA5A6FEA42426FEA524292B2EA52B0F82F
:102B7000502000F20C4092B21044C25AC2F3090233
:102B8000C252C25A6FEA42426FEA524292B2C252F3
:102B9000204605F018FA002E00F0E98099F8281078
:102BA000226832F8213023F4E04323F070031B0441
:102BB0001B0C43F4404343F0800322F82130D6E05D
:102BC000012AE5D1B0F850C000F204451FFA8CFC90
:102BD0000A016544AB52B0F8505000F20C40ADB25F
:102BE00028448352D4E76EB130F8213023F4E04317
:102BF00023F070031B041B0C43F4404343F0800399
:102C000020F82130282303FB054393F84C20012AA8
:102C100040F0AD80DA6BD3F848E002EB0C065A6C5A
:102C2000DE6362445A649A6B964533D3AEEB020E70
:102C3000C3F848E099F829C093B2BCF1000F46D11F
:102C4000B0F850E000F2044C1FFA8EFEF444090183
:102C50003CF801E03E2ACEF3090E2CF801E026D91B
:102C60004FEA521ED2063CF8012008BF0EF1FF3E8B
:102C700092B242EA8E226FEA42426FEA524292B226
:102C80002CF80120282202FB0542128E314602F068
:102C9000AFFB6CE0BEF1000F03D1624683F84CE05D
:102CA000C8E7002283F84C209A647246C2E712B942
:102CB0003CF80120DFE74FEA520ED2073CF8012032
:102CC00048BF0EF1010E92B242EA8E22D7E7BCF164
:102CD000010FD7D1B0F850C000F204421FFA8CFCAB
:102CE000624409015352CDE7B0F850C0B6B21FFAA2
:102CF0008CFCD4440CF1060C3EF81CC0CCF3090C3F
:102D00009C4598BFA3EB0C02282303FB05431A64E0
:102D1000002A52D199F82930002B3CD1B0F850202C
:102D200000F2044592B20B011544EA5AC2F30902BB
:102D3000EA52EA5A6FEA42426FEA524292B2EA52C9
:102D4000B0F8502000F20C4092B21044C25AC2F3C4
:102D50000902C252C25A6FEA42426FEA524292B22A
:102D6000C252204605F02FF9002E3FF417AF99F814
:102D70002810226832F8213023F4E04323F0400386
:102D80001B041B0C83F0300343F4004343F0800327
:102D900022F8213056E4012BE3D1B0F850C000F204
:102DA00004451FFA8CFC65440B01EA52B0F8505000
:102DB00000F20C40ADB22844D2E76EB930F82130B1
:102DC00023F4E04323F070031B041B0C43F4404343
:102DD00043F0800320F82130282303FB054393F8B8
:102DE0004C20012AC3D15A6CDE6B6244D3F848E010
:102DF0005A649A6B66449645DE6330D3AEEB020E9E
:102E0000C3F848E099F829C093B2BCF1000F43D150
:102E1000B0F850E000F20C4C1FFA8EFEF4440901A9
:102E20003CF801E03E2ACEF3090E2CF801E023D94C
:102E30004FEA521ED2063CF8012008BF0EF1FF3EB9
:102E400092B242EA8E226FEA42426FEA524292B254
:102E50002CF80120282202FB05456A8E16E7BEF1F8
:102E6000000F03D1624683F84CE0CBE700229A645E
:102E700083F84C207246C5E712B93CF80120E2E71E
:102E80004FEA520ED2073CF8012048BF0EF1010E66
:102E900092B242EA8E22DAE7BCF1010FDAD1B0F841
:102EA000502000F20C4C92B294440A012CF80230EB
:102EB000D0E7460512D522682046B2F8443023F404
:102EC00080631B041B0CA2F8443005F088F82946E7
:102ED000204605B0BDE8F04FFFF791BB41040AD58D
:102EE0002268B2F8443023F480431B041B0CA2F880
:102EF0004430FFF7ACBB820405D52268B2F84430F9
:102F000023F40053F1E7C30419D522682046B2F830
:102F1000403023F004031B041B0CA2F84030B2F82D
:102F2000403023F008031B041B0CA2F8403005F0CE
:102F300073F82268B2F8443023F48053D5E70705CC
:102F400048D56846226806461146134602F1200518
:102F500033F8047B9D4226F8027BF9D1B2F8403069
:102F60009BB243F00103A2F84030B2F8403023F0A6
:102F700001031B041B0CA2F84030B2F844305E057C
:102F8000FBD5B2F8443023F480631B041B0CA2F879
:102F9000443030F8023B21F8043B8D42F9D1B2F8BD
:102FA000403020469BB243F00803A2F84030B2F80C
:102FB000443023F400631B041B0CA2F84430B2F825
:102FC00040309BB243F00403A2F8403005F014F8FF
:102FD000FFF73DBB82050DD522682046B2F844308C
:102FE00023F400731B041B0CA2F8443004F0F3FF1D
:102FF000FFF72DBBC3057FF52AAB2268B2F844303A
:1030000023F4807371E700BF11F0800F70B505469F
:1030100001F007004FF028011AD0012400FB011134
:1030200029444C70022BCB7008BF0023087008BFE6
:103030000B710A6195F8A832012B13D0012328687F
:1030400085F8A83201F028FF002085F8A80270BD9D
:10305000002601FB00F404F5B4712C44294484F8E3
:103060006961DFE70220F2E711F0800F10B501F08F
:10307000070204464FF0280113D0012302FB01117F
:1030800001444B700A7094F8A832012B13D001232D
:10309000206884F8A83202F05FF8002084F8A802C3
:1030A00010BD01FB02F303F5B47101440344002099
:1030B00083F86901E6E70220F2E770B528240026CC
:1030C00001F007014C43051985F8681104F5B47146
:1030D0000144C5E95F23C5F8846185F8696100682A
:1030E00002F096F9304670BD282301F0070103FB7A
:1030F0000100D0F88401704770B501F00705282160
:1031000001FB05040026C4E90F23012205FB011180
:1031100084F84C200144A364666484F8292084F870
:103120002850006802F074F9304670BD38B5436825
:1031300001F007059D42044628D811F0800F4FF09A
:1031400028031AD005FB0333C11801234B70012358
:103150000D708B7094F8A8229A4219D0206884F8D8
:10316000A83202F0CCF825B9206804F52C7102F0E1
:103170003DF9002084F8A80238BD00224B4303F536
:10318000B4710344014483F86921E0E70120F3E7C7
:103190000220F1E738B5436801F00F029A42044675
:1031A00026D811F0800F01F007024FF0280115D04A
:1031B000012302FB011101444B7000250A708D7040
:1031C00094F8A832012B15D00123206884F8A83286
:1031D00002F0B5F8284684F8A85238BD01FB02F386
:1031E00003F5B47101440344002083F86901E4E766
:1031F0000120F2E70220F0E710B5282411F0800F3B
:103200001BBF01F0070101FB044404FB010000198E
:1032100008BF00F5B47099B21AB90273C1800020DA
:1032200010BD012283600273F9E770472DE9F34175
:10323000054638B30368DB0710D42B689F075ED4BC
:103240002B68190700F195802B685A0700F1C1809F
:10325000EB69002B40F02C81002029E0904C636842
:1032600003F00C03042B07D0636803F00C03082B56
:103270000AD16368DE0307D523689C03DDD56B683C
:10328000002BDAD1012013E06B68B3F5803F12D137
:10329000236843F480332360FEF7ECFB0646236883
:1032A0009803CAD4FEF7E6FB801B6428F7D90320F5
:1032B00002B0BDE8F0819BB9236823F4803323601A
:1032C000236823F480232360FEF7D4FB064623689B
:1032D0009903B2D5FEF7CEFB801B6428F7D9E6E749
:1032E000B3F5A02F236803D143F480232360CFE7F5
:1032F00023F480332360236823F48023CBE7684CD6
:10330000636813F00C0F07D0636803F00C03082BFD
:1033100010D16368DA030DD423689B0702D52B69AB
:10332000012BAFD123686A6923F0F80343EAC20393
:10333000236085E72A695B4B6AB101221A60FEF7B8
:1033400099FB064623689F07ECD4FEF793FB801B8E
:103350000228F7D9ABE71A60FEF78CFB0646236814
:1033600098077FF56DAFFEF785FB801B0228F6D925
:103370009DE7AA694A4E4B4BE2B10122C3F8802473
:10338000FEF778FB0446736A9B070DD54FF4FA529B
:10339000454B1B68B3FBF2F3019300BF019B5A1E20
:1033A0000192002BF9D14FE7FEF764FB001B0228C6
:1033B000E9D97CE7C3F88024FEF75CFB0446736A16
:1033C0009F077FF541AFFEF755FB001B0228F6D99A
:1033D0006DE7334CE369D80024D40127E36943F057
:1033E0008053E361E36903F080530093009B2F4E09
:1033F0003368D90518D5EB68012B26D1236A43F031
:1034000001032362FEF736FB41F288380646236A41
:103410009B073FD5002F3FF41BAFE36923F0805398
:10342000E36115E70027E2E7336843F48073336014
:10343000FEF720FB80463368DA05DCD4FEF71AFB82
:10344000A0EB08006428F6D931E7ABB9236A41F252
:10345000883823F001032362236A23F004032362E4
:10346000FEF708FB0646236A9807D3D5FEF702FB52
:10347000801B4045F7D91AE7052B236A03D143F097
:1034800004032362BAE723F001032362236A23F0D3
:103490000403B6E7FEF7EEFA801B4045B7D906E70E
:1034A0000010024000004242700000200070004006
:1034B0002A4C626802F00C02082A3ED00022022B3D
:1034C000274B1A662CD1FEF7D5FA064623689901D8
:1034D00020D42B6AB3F5803F05D16268A96822F435
:1034E00000320A436260696A62680B4322F4741214
:1034F0001343012263601A4B1A66FEF7BBFA0546B6
:1035000023689A013FF5A8AEFEF7B4FA401B0228E3
:10351000F6D9CCE6FEF7AEFA801B0228D6D9C6E66D
:10352000FEF7A8FA054623689B017FF595AEFEF7E6
:10353000A1FA401B0228F6D9B9E6012B3FF4A2AE4E
:1035400060682B6A00F480329A427FF49BAE6B6A0B
:1035500000F47010C01A18BF0120A9E60010024044
:10356000000042420D4A536803F00C01082912D1B1
:103570000B48C3F38341DB03405C09D55368094A18
:10358000C3F340435043084AD35CB0FBF3F07047A9
:10359000064B584370470348704700BF0010024075
:1035A000F893000800127A00F693000800093D0025
:1035B0002DE9F0410D46044610B90120BDE8F08127
:1035C000444A136803F007038B4228D321688E070F
:1035D00030D4CA0743D43F4A136803F00703AB4211
:1035E00065D822683C4D12F0040F6CD1130706D544
:1035F0006B68226923F4605343EAC2036B60FFF7F0
:10360000B1FF6B68354AC3F30313D35CD840344B26
:103610001860344B1868FEF7EBF90020CEE713680A
:1036200023F007030B431360136803F007038B4277
:10363000C3D1CBE7284B11F0040F1EBF5A6842F4E8
:10364000E0625A60080742BF5A6842F460525A600A
:103650005A68A06822F0F00202435A60B9E7626833
:103660001D4E012A33681AD113F4003FA5D07368A8
:1036700041F2883823F0030313437360FEF7FAF92D
:1036800007467368626803F00C03B3EB820FA2D0A5
:10369000FEF7F0F9C01B4045F3D903208EE7022A5C
:1036A00002D113F0007FE1E713F0020FDEE71368A9
:1036B00023F007032B431360136803F00703AB42A7
:1036C0007FF47BAF8DE76B68E16823F4E0630B4325
:1036D0006B608BE7002002400010024070940008ED
:1036E000700000204C000020044B054A5B68C3F3C7
:1036F0000223D35C034A1068D84070470010024090
:103700006894000870000020044B054A5B68C3F30E
:10371000C223D35C034A1068D840704700100240AF
:1037200068940008700000200F2303600B4B5A6858
:1037300002F0030242605A6802F0F00282605A68A6
:1037400002F4E062C2605B68DB0803F4E0630361DB
:10375000034B1B6803F007030B6070470010024027
:103760000020024003682DE9F3410546D80721D522
:10377000364CE369D9002BD40126E36943F080532A
:10378000E361E36903F080530193019B304F3B6891
:10379000DA051FD5236A6A6813F440732ED1236AB1
:1037A0006A6823F44073134323621EB1E36923F074
:1037B0008053E3612A68910706D52449A8684B68BD
:1037C00023F4404303434B60D30636D4002012E079
:1037D0000026DBE73B6843F480733B60FEF74AF961
:1037E00080463B68DB05D5D4FEF744F9A0EB080022
:1037F0006428F6D9032002B0BDE8F08102F44072DB
:103800009A42CCD00120134A236AC2F84004002017
:1038100023F44071DF07C2F840042162BFD5FEF7F0
:1038200029F941F288380746236A9807B7D4FEF78A
:1038300021F9C01B4045F7D9DCE7044AE968536821
:1038400023F480030B435360C0E700BF0010024025
:103850000070004000004242022808B544D0102801
:1038600003D0012822D0002034E0254B5A68186884
:1038700010F080702ED0C2F383412248D20348BF9B
:103880005A68405C41BF2049C2F34042895C1F4AEC
:103890005B684CBFB2FBF1F21D4A5B0202FB00F019
:1038A00018D403234000B0FBF3F013E040F20231E0
:1038B000134A136A1940B1F5817F1ED003F4407397
:1038C000B3F5007F07D149F64040536A13F0020F69
:1038D00008BF002008BDB3F5407FC4D113684FF284
:1038E000244013F4003FF3E7FFF70EFF044B5B683F
:1038F000C3F3813301335B00D5E74FF40040E9E7C0
:10390000001002400A9400080894000800127A008F
:1039100000093D00036A026A70B522F001020262EA
:10392000446882690D6822F073022A438D6823F08F
:1039300002032B430A4DA8420BD1CD6823F00803A4
:103940002B4324F44074D1E90556354323F0040396
:103950002C43446082614A684263036270BD00BFC9
:10396000002C0140036A026A70B522F48072026280
:103970004468C2690D6822F073022A438D6823F4FB
:10398000007343EA05230B4DA8420DD1CD6823F403
:10399000006343EA052324F44054D1E90556354336
:1039A00023F4806344EA05144460C2614A68C26338
:1039B000036270BD002C0140036A026A30B522F434
:1039C000805202624468C2690D6822F4E64242EA0B
:1039D00005228D6823F4005343EA0533064DA842BF
:1039E00002BF4D6924F4804444EA85144460C261F6
:1039F0004A680264036230BD002C014090F83D30FB
:103A0000012B1CD102230F4A80F83D3003689342FA
:103A10000AD0B3F1804F07D0A2F59432934203D07D
:103A200002F58062934204D19A6802F00702062AE6
:103A300003D01A6842F001021A600020704701208A
:103A4000704700BF002C014090F83C200346012A3B
:103A50004FF0020009D01A6883F83D005161002040
:103A6000012283F83C0083F83D207047704770477F
:103A7000036810B51A69044691070ED5DA689207F3
:103A80000BD56FF002021A61012202779B699B0736
:103A900077D001F0CEF90023237723681A69500705
:103AA00010D5DA6851070DD56FF004021A610222B1
:103AB00022779B69204613F4407F68D001F0B9F962
:103AC0000023237723681A6912070FD5DA681007D5
:103AD0000CD56FF008021A6104222277DB692046B8
:103AE00099075AD001F0A5F90023237723681A69B2
:103AF000D20610D5DA68D0060DD56FF010021A6123
:103B000008222277DB69204613F4407F4BD001F076
:103B100090F90023237723681A69D10708D5DA685A
:103B2000D20705D56FF0010220461A6101F05EF957
:103B300023681A69100608D5DA68110605D56FF0F2
:103B4000800220461A6100F000FB23681A695206C1
:103B500008D5DA68500605D56FF0400220461A6194
:103B6000FFF785FF23681A69910622D5DA68920665
:103B70001FD56FF020022046BDE810401A6100F00A
:103B8000E3BA01F054F92046FFF770FF83E701F034
:103B90004EF92046FFF76AFF92E701F048F9204608
:103BA000FFF764FFA0E701F042F92046FFF75EFF50
:103BB000AFE710BD134A036890420AD0B0F1804FBE
:103BC00007D0A2F59432904203D002F58062904271
:103BD00007D14A6823F070031343CA6823F4407383
:103BE00013434A6923F08003134303608B68C36265
:103BF0000B688362034B984204BF0B690363012384
:103C000043617047002C014010B5044630B390F872
:103C10003D3003F0FF021BB980F83C2002F0EAFCC3
:103C20000223206884F83D30211DFFF7C3FF0123E4
:103C3000002084F8463084F83E3084F83F3084F821
:103C4000403084F8413084F8423084F8433084F8BE
:103C5000443084F8453084F83D3010BD0120FCE745
:103C6000036A026A70B522F0100202624468826937
:103C70000D6822F4E64242EA05228D6823F0200313
:103C800043EA05130B4DA8420DD1CD6823F0800304
:103C900043EA051324F44064D1E90556354323F083
:103CA000400344EA8504446082614A688263036297
:103CB00070BD00BF002C014010B590F83C300446A8
:103CC000012B1DD0082A17D007D862B1042A0FD0C3
:103CD0000120002384F83C3010BD0C2AF8D1006884
:103CE000FFF76AFE02E00068FFF714FE0020F0E72D
:103CF0000068FFF7B5FFF9E70068FFF733FEF5E767
:103D00000220E9E738B590F83C300446012B4FD04B
:103D10000120082A84F83C003AD006D8BAB1042A17
:103D200026D0002384F83C3038BD0C2AF9D1206815
:103D3000FFF742FEC3690A6943F40063C361C369C4
:103D400023F48063C361C36943EA02232EE0206841
:103D5000FFF7E0FD83690A6943F008038361836923
:103D600023F0040383618369134383610020D8E750
:103D70002068FFF775FF83690A6943F40063836174
:103D8000836923F480638361836943EA0223ECE758
:103D90002068FFF7E7FDC3690A6943F00803C361C0
:103DA000C36923F00403C361C3691343C361DDE73F
:103DB0000220B9E770B5056A046A114E24F00104C7
:103DC0000462B042846916D0B0F1804F13D0A6F5DA
:103DD0009436B0420FD006F58066B0420BD044F066
:103DE000010263F3071201F00A0125F00A031943E7
:103DF0008261016270BD24F003042243F1E700BF39
:103E0000002C0140F8B590F83C300546012B0C46DB
:103E100000F081800120082A85F83C005BD006D89C
:103E200042B3042A35D0002385F83C30F8BD0C2A73
:103E3000F9D1D1E900272B68CE68186A196A1203F4
:103E400021F480511962D96920F4005021F44071A5
:103E500041EA072102F4005266F30F310243D961AF
:103E60001A62DA69A16822F44062DA61DA6942EA28
:103E700001224EE02868CB6806C9FFF79BFF8369E3
:103E8000A26823F00C0383618369134383610020DC
:103E9000C9E72B68D1E90027186ACE68196A1201B0
:103EA00021F010011962996920F0A00021F44071FD
:103EB00041EA072102F0A00266F30F310243996143
:103EC0001A629A69A16822F440629A619A6942EA88
:103ED00001229A61DBE72B68D1E90021186A1E6A8A
:103EE000E76826F480761E62DE69120226F0030679
:103EF000314320F4007002F4007267F307110243AB
:103F0000D9611A62DA69A16822F00C02DA61DA6911
:103F10000A43DA61BBE7022088E710B50124036A8F
:103F200001F01F018C4023EA04030362036A8A4004
:103F30001A43026210BD000008B529B990F83E305E
:103F4000012B1DD001202EE0042907D190F83F302D
:103F5000012BF7D1022380F83F3014E0082907D164
:103F600090F84030012BEDD1022380F840300AE078
:103F700090F84130012BE5D1022380F8413002E076
:103F8000022380F83E3000680122FFF7C6FF0F4B86
:103F9000984209D0B0F1804F0BD1836803F007033A
:103FA000062B0DD1002008BD436C43F4004343644D
:103FB000F3E7074B9842F0D003F580639842ECD0CA
:103FC000036843F001030360ECE700BF002C0140ED
:103FD00000040040FFF7B0BF08B5034641BB90F8AE
:103FE0003E0093F84220C0B20128D2B24DD1012A3E
:103FF0001DD1022291BB83F83E2083F8422018682D
:104000000122FFF78AFF224B98420AD0B0F1804F7D
:1040100007D0A3F59433984203D003F58063984208
:104020002ED1836803F00703062B29D1002008BD99
:10403000042905D190F83F0093F84320C0B2D3E79C
:1040400008290BBF90F8400093F8410093F84420F2
:1040500093F845200CBFC0B2C0B2C5E7042904D113
:1040600083F83F2083F84320C9E708290BBF83F872
:10407000402083F8412083F8442083F84520BEE7A0
:10408000036843F001030360D0E70120CFE700BFDE
:10409000002C014010B50424036A01F01F018C407C
:1040A00023EA04030362036A8A401A43026210BDD2
:1040B00008B529B990F84230012B1DD001203EE00F
:1040C000042907D190F84330012BF7D1022380F85F
:1040D000433014E0082907D190F84430012BEDD18A
:1040E000022380F844300AE090F84530012BE5D1F6
:1040F000022380F8453002E0022380F84230006855
:104100000422FFF7C7FF436C43F4004343640C4BA6
:1041100098420AD0B0F1804F07D0A3F5943398426B
:1041200003D003F58063984204D1836803F007034A
:10413000062B03D0036843F001030360002008BD91
:10414000002C0140FFF7B4BF70477047026802F1CE
:104150000C0353E8003F23F490730C3242E8003123
:1041600002680029F2D102F1140353E8003F23F062
:10417000010302F1140C4CE800310029F3D1036B68
:10418000012B0BD102F10C0353E8003F23F0100385
:1041900002F10C0C4CE800310029F3D1202380F807
:1041A000423000230363704710B504460368C168BA
:1041B0001A6922F440520A431A6182680069D96878
:1041C0000243606921F4B05121F00C0102430A431B
:1041D000DA605A69A16922F440720A435A610E4AB0
:1041E000934215D1FFF790FA192343436268206880
:1041F0009200B3FBF2F36422B3FBF2F102FB113342
:104200001B013233B3FBF2F303EB0113836010BDE8
:10421000FFF76AFAE8E700BF00380140704710B5C1
:10422000044648B390F8413003F0FF021BB980F810
:104230004020FFF7F3FF2423226884F84130D3683D
:10424000204623F40053D360FFF7AEFF236800201D
:104250001A6922F490421A615A6922F02A025A61BC
:10426000DA6842F40052DA602023606484F8413056
:1042700084F84230606310BD0120FCE710B50446AD
:1042800068B390F8413003F0FF021BB980F840207A
:10429000FFF7C4FF2423226884F84130D368204606
:1042A00023F40053D360FFF77FFF236800201A69CF
:1042B00022F490421A615A6922F022025A615A6924
:1042C00042F008025A61DA6842F40052DA602023B0
:1042D000606484F8413084F84230606310BD01208E
:1042E000FCE790F84130202B10D189B182B1C28413
:1042F00082840023212201620168436480F8412006
:10430000CA68184642F08002CA60704702207047AF
:104310000120704708B50023406AC385C38402F0BA
:1043200045FB08BD704790F8423007B5222B42D1BB
:1043300081680268B1F5805F836A3FD10169002915
:104340003FD15268C2F3080223F8022B8362C38D67
:10435000013B9BB2C385002B2DD10268D16821F0AF
:104360002001D160D16821F48071D160516921F0C0
:1043700001015161202280F842204363026B012A2F
:10438000026828D1036302F10C0353E8003F23F0D5
:10439000100302F10C0C4CE800310029F3D1136832
:1043A000DB0605D501911368019353680193019BC6
:1043B000818DFFF7B7FF03B05DF804FB39B90169E0
:1043C00029B95268D2B21A70836A0133BEE75268C3
:1043D00002F07F02F7E702F0E3FAECE7036873B557
:1043E0001A6804461607D9685D6908D1960668D52B
:1043F0008D0666D502B0BDE87040FFF794BF05F0AA
:10440000010001F4907505435BD0D60705D5CD05B5
:1044100042BF636C43F001036364530704D518B1D2
:10442000636C43F002036364960704D518B1636CB0
:1044300043F004036364150707D501F02003034329
:104440001EBF636C43F008036364636C002B32D0BF
:10445000920604D58B0602D52046FFF764FF266836
:1044600020467369626C03F0400302F0080253EACD
:10447000020522D0FFF76AFE73695E0618D522682E
:1044800002F1140353E8003F23F04003143242E8E2
:1044900000310029F3D1E06B50B1744B4363FDF759
:1044A000FDFE40B1E06B436B02B0BDE870401847C1
:1044B000204602F07BFA02B070BD02F077FA656424
:1044C000F9E7206B012840F09480D50640F19180F7
:1044D000C80640F18E80002201921A6801925A6843
:1044E0000192019A5A6952064DD5E16B0A685268E9
:1044F00092B2002ADFD0A08D9042DCD9E2858A6991
:10450000202A36D003F10C0252E8002F22F48072E8
:1045100003F10C0040E800210029F3D103F114025B
:1045200052E8002F22F0010203F1140040E80021BC
:104530000029F3D103F1140252E8002F22F04002C7
:1045400003F1140040E800210029F3D1202284F86F
:104550004220216303F10C0252E8002F22F01002E6
:1045600003F10C0040E800210029F3D1E06BFDF7D6
:1045700075FE02236363E38DA18DC91A89B22046BB
:10458000FFF7D0FE97E7E28DE08DA18D80B292B269
:10459000002890D0891A89B200298CD003F10C022E
:1045A00052E8002F22F4907203F10C0545E8002038
:1045B0000028F3D103F1140252E8002F22F0010287
:1045C00003F1140545E800200028F3D1202284F8E7
:1045D0004220206303F10C0252E8002F22F0100267
:1045E00003F10C0545E800200028F3D102236363A2
:1045F000C5E7160628D50D0626D594F84120212AB0
:104600007FF459AFA168226AB1F5805F17D12169A3
:10461000A9B932F8021BC1F3080159602262E28C89
:10462000013A92B2E284002A7FF445AFDA6822F0C0
:104630008002DA60DA6842F04002DA603BE7511C3F
:10464000216212785A60EAE750067FF534AF4A06D5
:104650007FF531AFDA68204622F04002DA6020238D
:1046600084F8413002F09FF925E700BF15430008A8
:1046700090F84030012B11D02423026880F841309B
:10468000D36823F00C0343F00803D360202380F8A1
:104690004130002380F840301846704702207047B0
:1046A00090F84030012B11D02423026880F841306B
:1046B000D36823F00C0343F00403D360202380F875
:1046C0004130002380F84030184670470220704780
:1046D00090F8412090F84200104370470023C285B3
:1046E000436422238285026980F842308162036834
:1046F0001AB1DA6842F48072DA605A69002042F036
:1047000001025A61DA6842F02002DA60704770B440
:1047100090F84260202E06D141B13AB100240463E2
:1047200070BCFFF7DBBF022070BC70470120FBE7C5
:10473000836810B504462BB1032201469847002335
:10474000C4E9023310BD4B1E032B00D9FEE78900DC
:10475000081F70470139435C13F0100004D0022990
:1047600016D80C4A32F91100DB0712D503290FD8ED
:10477000DFE801F00205080B40F00100704740F04F
:104780001000704740F48070704740F480507047CC
:10479000FEE77047229400080139032900D9FEE79B
:1047A000014B5856704700BF1E9400080139032979
:1047B0009ABF024B58564FF0FF3070471A940008CA
:1047C0002DE9F0410E460446FFF7BDFF06F106084D
:1047D00005463146204604EB0818FFF7DDFFD8F800
:1047E00008302BB1C24323691A61DA681043D860DC
:1047F000771E04EB47039B880C2B4AD8DFE803F0B5
:104800005252191919070719194B4B4B2B00E35D2D
:10481000DE0604D5294604F11000FFF793FCE35DA2
:10482000D80736D5294604F11000BDE8F041FFF75E
:10483000D1BBE35DD90604D5294604F11000FFF78A
:1048400037FCE35DDA0724D5294604F11000BDE802
:10485000F041FFF771BB294604F11000FFF7BCFBE4
:1048600031462046FFF7A2FF014606462046FFF7E5
:1048700071FF25692B6A1843D8F80830286243B1C4
:1048800031462046FFF788FFC3432B61EB6818438E
:10489000E860BDE8F081294604F11000BDE8F04170
:1048A000FFF79ABB23691B68DB07F2D404F1100001
:1048B000BDE8F041FFF7A2B8836E10B5044653B1CE
:1048C0006FF0010250F8103F1A61DA6842F00102FD
:1048D000DA60FFF793F820460121FFF771FF2046C9
:1048E0000221FFF76DFF20460321FFF769FF2046F5
:1048F000BDE810400421FFF763BF00002DE9F0433D
:104900008DB004461F460E46FFF71DFF4FF6FF739E
:104910009046059305462369D0B95B6B0122069347
:104920000023CDE902239DF85020CDE909330793F8
:1049300008930B9301930492B8F10C0F28D8DFE889
:1049400008F05010204F5658616365696770720017
:10495000042801D19B6BE1E708280CBFDB6B1B6CC3
:10496000DCE704EB4606738843B100232A467380D4
:1049700005A904F110000593FFF79EF90DB0BDE8FD
:10498000F08310232A46059305A9E018FFF794F950
:10499000013E04EB4603A3F804807B1CEED03846AE
:1049A00001F06AFEA84268D138463449A8F10908E6
:1049B00001F0FCFCB8F1030F05D8384604F0AEF85E
:1049C000002104F0C1F938462C4901F029FD10F40A
:1049D000801F0CBF01221022A35D1343A355CDE716
:1049E00020232A46059305A904F11000CEE73023C1
:1049F000F7E760232A4605A904F110000593FFF7A5
:104A000081F9C5E77023F5E75023EAE74023E8E79B
:104A1000022301932A4601A904F11000FFF7F2F9DD
:104A2000B6E70A23F5E73846144901F0F9FC10F41B
:104A3000801000D0FEE7012304F110092A460190FE
:104A400001A948460293FFF7DDF931462046FFF7FA
:104A5000ADFE431EE25C014642F00102E2540C222C
:104A600004EB43039A8002232046CDE90133FFF78C
:104A70006AFE01A902464846D0E7FEE7FC95000819
:104A8000013903299ABF00EB41008088002070475C
:104A900001211030FEF7D8BF0369186800F001004B
:104AA000704710B502460C46FFF7F6FF80B9CB6899
:104AB000DB070ED5CB68104623F00103CB60FFF770
:104AC000E7FF6FF001032361E36843F00103E36054
:104AD00010BD1046BDE81040FFF7DABF0B4B9842FF
:104AE0000BD0B0F1804F0AD0A3F59433984208D090
:104AF00003F58063984206D0FEE70020704701204E
:104B00007047022070470320704700BF002C01400F
:104B1000024670B5044652F8100FFFF7DFFF054656
:104B2000104601F0F9FC0023084A04F1600642F83F
:104B30002530E36004F1B005B54204D0103D2846AD
:104B4000FCF76EF8F8E7204670BD00BF9C0200201D
:104B5000F8B504460846FFF7C1FF236903B1FEE735
:104B60001B4D04F10C0245F820200E2204F1100622
:104B70003046C4E90C33C4E90E33C4E91033C4E948
:104B80001623216184F82C30A36484F84C3084F817
:104B90004D30E46001F07CFC04F1600504F1B007E5
:104BA00028461035FFF7C4FDBD42F9D100234FF66A
:104BB000FF72C4E90033C4E90632C4E90833A360D4
:104BC000636180233046A362BDE8F840FFF71CB85C
:104BD0009C02002010B586B014220446002101A8D2
:104BE00004F0AEFA0023694601A80093FEF79CFD8D
:104BF000206901F027FD012802D002280FD0FEE72E
:104C0000049CFEF771FDB4F5C06F05D00BD824F4F9
:104C10008074B4F5806F00D1400006B010BD059CD3
:104C2000FEF772FDEFE7B4F5E06FF4E7012A38B55F
:104C300005460C460BD0022A16D004B1013C296966
:104C40002846CC62EC61BDE83840FFF72ABFFFF789
:104C5000C1FF084BB0FBF3F044432A69230C936275
:104C60000133B4FBF3F4E8E7FFF7B4FFB0FBF4F46F
:104C7000F3E700BF40420F00F8B5054614461A4658
:104C8000FFF761FD2B69822A9E6A074606F101063D
:104C900029D01FD8102A11D852BB4FF6FF722969AC
:104CA000CB6A934203D1B4F5803F08BF1C4637BBA3
:104CB0004C632846BDE8F840FFF7F3BE812AECD1EB
:104CC0002846FFF787FF124BB0FBF3F06043B0FBC1
:104CD000F6F4E2E7832AE0D1DB6A03FB04436424B1
:104CE000B3FBF4F4D9E72846FFF774FF6643EEE719
:104CF000DB6A03FB044301249440013CF0E7042FEA
:104D000001D18C63D5E7082F0CBFCC630C64D0E7CE
:104D100040420F00034B186810B10430FEF7A8BEE4
:104D2000704700BF9C020020FFF7F4BF034B586898
:104D300010B10430FEF79CBE704700BF9C020020FB
:104D4000034B986810B10430FEF792BE704700BF65
:104D50009C020020034BD86810B10430FEF788BED7
:104D6000704700BF9C0200200022C0E90022C0E979
:104D700002227047F8B504460E4600F1600500F1C6
:104D8000B00728461035FFF7EFFFBD42F9D10023E9
:104D9000204631462361FFF7DBFE2046F8BD38B5DB
:104DA0000023C0E90033C0E902338B6804460D4696
:104DB0002BB102229847EB68E360AB68A360204602
:104DC00038BD826810B50AB904F0A2FAC368BDE81C
:104DD0001040184708B500B9FEE701F057FB00681E
:104DE000836E13B16030FFF7ECFF08BDFFF7F2BF31
:104DF00010B500B9FEE7037F013B072B10D8DFE8B1
:104E000003F004140F100F0F0F12012401F03EFBEA
:104E10000068063400EB041083680BB1FFF7D1FF84
:104E200010BD0324F2E70424F0E70224EEE7FFF7C5
:104E3000DFBFFFF7DDBF84B001A880E80E0004B03B
:104E40000020704703464FF43F420020A3F844007F
:104E5000A3F840207047B0F8403023F47C535B0443
:104E60005B0CA0F84030002070470020704784B0F1
:104E700010B5044603A880E80E0000200123A4F822
:104E80004030A4F84000A4F84400A4F85000BDE865
:104E9000104004B070470000F0B50A78CD7830F8C3
:104EA0002240034624F4EC4424F070042404240C2F
:104EB000032D03D8DFE805F041494745012048F2BA
:104EC0008006344323F8224033F822409F4FA4B297
:104ED0003C401443344323F822400C7B03EB021C78
:104EE000002C40F08D80CC884E78640864007EB33E
:104EF000B3F8501089B26144A1F8004433F822108D
:104F0000490609D533F8221089B2394041F40041ED
:104F100041F0C00123F8221033F822108C4C89B2E2
:104F2000012D01EA040101D081F0200141F400418A
:104F300041F0800123F822104CE0284644F400742C
:104F4000BDE744F4C0640020B9E744F48064FAE7A4
:104F5000B3F850500969ADB26544A5F80844B3F8F8
:104F600050403E29A4B26444B4F80C54C5F309057A
:104F7000A4F80C542FD94D09CE06B4F80C1408BF70
:104F800005F1FF3589B241EA85216FEA41416FEAB7
:104F9000514189B2A4F80C1433F822104F040DD5F6
:104FA00033F8221021F4E04121F070010904090CCA
:104FB00041F4404141F0800123F82210654CC2B910
:104FC0001A8892B2224082F4405242F4004242F0E7
:104FD00080021A80F0BD11B9B4F80C14D5E74D0861
:104FE000C907B4F80C1448BF013589B241EA8521DC
:104FF000CFE733F8221089B2214081F4005195E7C0
:10500000022D33F822405BD1A4B23C4044F4014469
:1050100044F0800423F82240B3F850400E89A4B233
:10502000760864447600A4F800644E89B3F85040D2
:105030007608A4B264447600A4F80864497800298C
:1050400048D133F822104E040DD533F8221021F444
:10505000E04121F070010904090C41F4404141F0A4
:10506000800123F8221033F822104D060DD533F8B5
:10507000221021F4E04121F070010904090C41F4EF
:10508000004141F0C00123F8221048F2800433F8B7
:10509000221021F4804121F070010904090C81F4EF
:1050A0004051214323F8221033F8221021F4E0412B
:1050B00021F040010904090C0C4323F8224089E740
:1050C00024F4E24424F070042404240C264323F83E
:1050D0002260A1E733F822104C040DD533F82210DA
:1050E00021F4E04121F070010904090C41F4404130
:1050F00041F0800123F8221033F8221049060DD523
:1051000033F8221021F4E04121F070010904090C68
:1051100041F4004141F0C00123F8221033F822107D
:105120000B4C89B22140012D18BF81F0200141F4C0
:10513000004141F0800123F8221033F8221021F4BD
:10514000804121F070010904090CEFE68F8FFFFF09
:10515000BF8FFFFF8FBFFFFF4A780B78097BD9BB5A
:105160000AB330F8232051060DD530F8232022F45D
:10517000E04222F070021204120C42F4004242F0AB
:10518000C00220F8232030F8232022F4E04222F04D
:1051900040021204120C42F4004242F0800220F855
:1051A00023200020704730F8232052040DD530F81A
:1051B000232022F4E04222F070021204120C42F486
:1051C000404242F0800220F8232030F8232022F4CD
:1051D000804222F07002DCE7002A4AD130F8232016
:1051E00051040DD530F8232022F4E04222F0700261
:1051F0001204120C42F4404242F0800220F82320B4
:1052000030F8232052060DD530F8232022F4E04256
:1052100022F070021204120C42F4004242F0C0026A
:1052200020F8232048F2800130F8232022F4E042C5
:1052300022F070021204120C42F4004242F0C0024A
:1052400020F8232030F8232022F4804222F070023C
:105250001204120C0A4320F8232030F8232022F4F1
:10526000E04222F040021204120C114320F82310F5
:1052700097E730F8232051040DD530F8232022F48D
:10528000E04222F070021204120C42F4404242F05A
:10529000800220F8232030F8232052060DD530F864
:1052A000232022F4E04222F070021204120C42F495
:1052B000004242F0C00220F8232048F2800130F87A
:1052C000232022F4E04222F070021204120C42F475
:1052D000404242F0800220F8232030F8232022F4BC
:1052E000E04222F040021204120C0A4320F823206C
:1052F00030F8232022F4804222F07002B3E74B788A
:105300000A788BB130F8223023F4E04323F04003D5
:105310001B041B0C83F0100343F4004343F0800391
:1053200020F822300020704730F8223023F48043E8
:1053300023F070031B041B0C83F48053ECE70B7BFE
:105340003BBB4B780A7833B330F822305B060DD57F
:1053500030F8223023F4E04323F070031B041B0CCD
:1053600043F4004343F0C00320F82230CB78012BF4
:105370000FD030F8223023F4E04323F040031B0425
:105380001B0C83F0200343F4004343F0800320F818
:1053900022300020704730F822305B040DD530F801
:1053A000223023F4E04323F070031B041B0C43F46E
:1053B000404343F0800320F8223030F8223023F4B9
:1053C000804323F070031B041B0C83F44053DAE783
:1053D00011B98023A0F84C3000207047002070479E
:1053E00000207047B0F8440080B27047002070473A
:1053F00000EB4200013300F580605B0800EB8303A3
:10540000834200D1704731F8022B20F8042BF7E7D4
:105410002DE9F0474B780446012B0D460A7B40F0FE
:105420001881D1F810908F6949694F4528BF4F46C0
:105430000ABBBFB2EA883B46FFF7DAFFB4F8500078
:10544000297880B204F20442090102448F522A787A
:1054500034F8223023F4E04323F040031B041B0CF8
:1054600083F03003002043F4004343F0800324F82A
:105470002230BDE8F087EB7895F800E0022B2E6A29
:105480004FEA0E1C40F0D080B14530F82E2080F05D
:10549000B48022F4E04222F070021204120C42F4B2
:1054A000014242F0800220F82E2030F82E80B0F821
:1054B00050E0F61B18F040082E6201EB070ABBB261
:1054C0001FFA8EFE4ED000F20C42724422F80C30CD
:1054D0006A89FFF78DFFB14536BFF31B00233E46B7
:1054E0006A782B62C5F814A0B3B27ABBB4F8502026
:1054F000287892B204F2044100011144425A3E2E2F
:10550000C2F30902425214D9425A7709F60608BF7B
:1055100007F1FF3792B242EA87226FEA42426FEA0E
:10552000524292B242522A8951462046FFF760FF0A
:105530008DE70EB9425AF0E7F207425A4FEA560792
:1055400048BF013792B242EA8722EAE7012AEAD14C
:10555000B4F85000297880B204F2044209010244F0
:105560008B52E0E700F20442724422F80C302A89A0
:10557000FFF73EFFB14536BFF31B43463E466A7810
:105580002B62C5F814A0B3B25ABBB4F850202878E7
:1055900092B204F20C4100011144425A3E2EC2F371
:1055A0000902425210D9425A7709F60608BF07F19C
:1055B000FF3792B242EA87226FEA42426FEA5242D2
:1055C00092B242526A89AFE70EB9425AF4E7F20743
:1055D000425A4FEA560748BF013792B242EA872241
:1055E000EEE7012AEED1B4F85000297880B204F237
:1055F0000C42090102448B52E4E722F4E24222F019
:1056000070021204120C42F4004242F0800220F8B0
:105610002E20B0F8503000F204429BB21A44B3B2CC
:1056200022F80C302A8981E7F61B30F82E202E62F2
:10563000B0F85060BBB25706B6B206D500F20C42C5
:10564000324422F80C306A8970E700F20442324496
:10565000E6E7002A3BD18B690969B0F850008B421C
:1056600084BF5A1A0B462978AA6180B204F20C4210
:1056700009010244885A3E2BC0F3090088521AD906
:105680005809DE068B5A08BF00F1FF309BB243EA8F
:1056900080236FEA43436FEA53439BB28B522A78CD
:1056A00034F8223023F4804323F070031B041B0CD6
:1056B00083F44053D6E60BB98B5AEAE75808DB0768
:1056C0008B5A48BF01309BB243EA8023E5E7CA7892
:1056D000022A70D1002B38D1B0F850200B7892B24A
:1056E00000F204401B011044C25AC2F30902C25224
:1056F0000A693E2A46D9C15A5609D70608BF06F19B
:10570000FF3689B241EA86216FEA41416FEA514191
:1057100089B2C152B4F8500004F20C4180B2014485
:10572000C85A3E2AC0F30900C85238D95009D706D2
:10573000CA5A08BF00F1FF3092B242EA80226FEAF3
:1057400042426FEA524292B2CA52EB69002BA6D093
:1057500044F240032A7834F8221003EA01008B4314
:1057600001D000289BD134F8223023F4E04323F009
:1057700070031B041B0C43F4004343F0C00324F8E4
:1057800022308CE70AB9C15ABEE7D107C15A4FEAA5
:10579000520648BF013689B241EA8621B8E70AB904
:1057A000CA5ACCE75008D607CA5A48BF013092B24D
:1057B00042EA8022C7E7012A5DD18A6909698A42E3
:1057C00094BF0020501AA86188BF0A46002B7FF4BE
:1057D00066AFB4F850102B7889B204F204401B0174
:1057E0000844C15A3E2AC1F30901C1522BD9D1063E
:1057F000C15A4FEA521608BF06F1FF3689B241EA94
:1058000086216FEA41416FEA514189B2C152B4F831
:10581000500004F20C4180B20144C85A3E2AC0F341
:105820000900C8521BD95009D606CA5A08BF00F150
:10583000FF3092B242EA80226FEA42426FEA52425D
:1058400092B2CA522BE70AB9C15ADAE7C15A5608CE
:10585000D70748BF013689B241EA8621D5E70AB9A0
:10586000CA5AE9E75008D207CA5A48BF013092B273
:1058700042EA8022E4E70120FBE500EB4200F0B5BC
:1058800000F580605D080C4607462E46023436B9A6
:10589000DB0744BF30F8253001F81530F0BD37F88C
:1058A000042B013E92B204F8022C120A04F8012CD7
:1058B000ECE703F051BB03F057BB000086B00428AF
:1058C00041D8DFE800F003101C2834001F4B2048AB
:1058D0009A6942F004029A619B6903F00403019300
:1058E000019B06B07047194B1A489A6942F00802AA
:1058F0009A619B6903F008030293029BF1E7134B43
:1059000015489A6942F010029A619B6903F01003EE
:105910000393039BE5E70D4B10489A6942F0200280
:105920009A619B6903F020030493049BD9E7074B1A
:105930000B489A6942F040029A619B6903F0400368
:105940000593059BCDE70020CBE700BF0010024088
:1059500000080140000C014000100140001401400B
:105960000018014008B5044900F05AFDC0F3C430E6
:10597000112800D9FEE708BD0098000841F2010394
:10598000984204D041F20203984202D0FEE7102070
:1059900070471120704700000368134A82B0934299
:1059A00011D1124B9A6942F400729A619B6903F417
:1059B00000730093009B0E4B1868C30411D40D496B
:1059C00002B000F0F3BC0C4A9342F4D1074B9A6941
:1059D00042F480629A619B6903F480630193019BA6
:1059E000E9E702B0704700BF002401400010024008
:1059F0006400002000980008002801400368124A53
:105A000093420DD1114BDA6842F40072DA60DA6821
:105A100022F40072DA609A6922F400729A61704787
:105A20000B4A9342FBD1094BDA6842F48062DA6098
:105A3000DA6822F48062DA609A6922F480629A61FC
:105A40009A6922F48062E9E70024014000100240D4
:105A500000280140F0B593B004463022002106A88A
:105A600003F06EFB0023E204CDE903330593ADF8A8
:105A70000630029357D541F202039C4253D8324B71
:105A800020460693FFF77AFF0726054600230127E5
:105A90004FF46022CDE907338DF824308DF82C3097
:105AA0000C9310930E938DF83C30284B06A80A9760
:105AB0000D921C60FCF7D0F9002840D1112D039500
:105AC0003DD803A906A8CDE90476FCF781F80028A3
:105AD00035D106A8FCF7B8FA002830D106A8FCF7A3
